:020000040000fa
:080000000002040000000000f2
:020000040000fa
:04000800640300008d
:020000040000fa
:04000c006403000089
:020000040000fa
:040010006403000085
:020000040000fa
:040014006403000081
:020000040000fa
:04001800640300007d
:020000040000fa
:04001c006403000079
:020000040000fa
:040020006403000075
:020000040000fa
:040024006403000071
:020000040000fa
:04002800640300006d
:020000040000fa
:04002c006403000069
:020000040000fa
:040030006403000065
:020000040000fa
:040034006403000061
:020000040000fa
:04003800640300005d
:020000040000fa
:04003c006403000059
:020000040000fa
:040040006403000055
:020000040000fa
:040044006403000051
:020000040000fa
:04004800c8020000ea
:020000040000fa
:04004c006403000049
:020000040000fa
:040050006403000045
:020000040000fa
:040054006403000041
:020000040000fa
:04005800640300003d
:020000040000fa
:04005c006403000039
:020000040000fa
:040060006403000035
:020000040000fa
:040064006403000031
:020000040000fa
:04006800640300002d
:020000040000fa
:04006c006403000029
:020000040000fa
:040070006403000025
:020000040000fa
:040074006403000021
:020000040000fa
:04007800640300001d
:020000040000fa
:04007c006403000019
:020000040000fa
:040080006403000015
:020000040000fa
:040084006403000011
:020000040000fa
:04008800640300000d
:020000040000fa
:04008c006403000009
:020000040000fa
:040090006403000005
:020000040000fa
:040094006403000001
:020000040000fa
:0400980064030000fd
:020000040000fa
:04009c0064030000f9
:020000040000fa
:0400a00064030000f5
:020000040000fa
:0400a40064030000f1
:020000040000fa
:0400a80064030000ed
:020000040000fa
:0400ac0064030000e9
:020000040000fa
:0400b00064030000e5
:020000040000fa
:0400b40064030000e1
:020000040000fa
:0400b80064030000dd
:020000040000fa
:0400bc0064030000d9
:020000040000fa
:0400c00064030000d5
:020000040000fa
:0400c40064030000d1
:020000040000fa
:0400c80064030000cd
:020000040000fa
:0400cc0064030000c9
:020000040000fa
:0400d00064030000c5
:020000040000fa
:0400d40064030000c1
:020000040000fa
:0400d80064030000bd
:020000040000fa
:0400dc0064030000b9
:020000040000fa
:0400e00064030000b5
:020000040000fa
:0400e40064030000b1
:020000040000fa
:0400e80064030000ad
:020000040000fa
:0400ec0064030000a9
:020000040000fa
:0400f00064030000a5
:020000040000fa
:0400f40064030000a1
:020000040000fa
:0400f800640300009d
:020000040000fa
:0400fc006403000099
:020000040000fa
:040100006403000094
:020000040000fa
:040104006403000090
:020000040000fa
:04010800640300008c
:020000040000fa
:04010c006403000088
:020000040000fa
:040110006403000084
:020000040000fa
:040114006403000080
:020000040000fa
:04011800640300007c
:020000040000fa
:04011c006403000078
:020000040000fa
:040120006403000074
:020000040000fa
:040124006403000070
:020000040000fa
:04012800640300006c
:020000040000fa
:04012c006403000068
:020000040000fa
:040130006403000064
:020000040000fa
:040134006403000060
:020000040000fa
:04020800640300008b
:020000040000fa
:04020c006403000087
:020000040000fa
:040210006403000083
:020000040000fa
:04021400640300007f
:020000040000fa
:04021800640300007b
:020000040000fa
:04021c006403000077
:020000040000fa
:040220006403000073
:020000040000fa
:04022400640300006f
:020000040000fa
:04022800640300006b
:020000040000fa
:04022c006403000067
:020000040000fa
:040230006403000063
:020000040000fa
:04023400640300005f
:020000040000fa
:04023800640300005b
:020000040000fa
:04023c006403000057
:020000040000fa
:040240006403000053
:020000040000fa
:04024400640300004f
:020000040000fa
:04024800c8020000e8
:020000040000fa
:04024c006403000047
:020000040000fa
:040250006403000043
:020000040000fa
:04025400640300003f
:020000040000fa
:04025800640300003b
:020000040000fa
:04025c006403000037
:020000040000fa
:040260006403000033
:020000040000fa
:04026400640300002f
:020000040000fa
:04026800640300002b
:020000040000fa
:04026c006403000027
:020000040000fa
:040270006403000023
:020000040000fa
:04027400640300001f
:020000040000fa
:04027800640300001b
:020000040000fa
:04027c006403000017
:020000040000fa
:040280006403000013
:020000040000fa
:04028400640300000f
:020000040000fa
:04028800640300000b
:020000040000fa
:04028c006403000007
:020000040000fa
:040290006403000003
:020000040000fa
:0402940064030000ff
:020000040000fa
:0402980064030000fb
:020000040000fa
:04029c0064030000f7
:020000040000fa
:0402a00064030000f3
:020000040000fa
:0402a40064030000ef
:020000040000fa
:0402a80064030000eb
:020000040000fa
:0402ac0064030000e7
:020000040000fa
:0402b00064030000e3
:020000040000fa
:0402b40064030000df
:020000040000fa
:0402b80064030000db
:020000040000fa
:0402bc0064030000d7
:020000040000fa
:0402c00064030000d3
:020000040000fa
:0402c40064030000cf
:020000040000fa
:0402c80064030000cb
:020000040000fa
:0402cc0064030000c7
:020000040000fa
:0402d00064030000c3
:020000040000fa
:0402d40064030000bf
:020000040000fa
:0402d80064030000bb
:020000040000fa
:0402dc0064030000b7
:020000040000fa
:0402e00064030000b3
:020000040000fa
:0402e40064030000af
:020000040000fa
:0402e80064030000ab
:020000040000fa
:0402ec0064030000a7
:020000040000fa
:0402f00064030000a3
:020000040000fa
:0402f400640300009f
:020000040000fa
:0402f800640300009b
:020000040000fa
:0402fc006403000097
:020000040000fa
:040300006403000092
:020000040000fa
:04030400640300008e
:020000040000fa
:04030800640300008a
:020000040000fa
:04030c006403000086
:020000040000fa
:040310006403000082
:020000040000fa
:04031400640300007e
:020000040000fa
:04031800640300007a
:020000040000fa
:04031c006403000076
:020000040000fa
:040320006403000072
:020000040000fa
:04032400640300006e
:020000040000fa
:04032800640300006a
:020000040000fa
:04032c006403000066
:020000040000fa
:040330006403000062
:020000040000fa
:04033400640300005e
:020000040000fa
:10040000cf8620000e7f22000e0188000000000031
:10041000000020000000e000020032000001200087
:100420002002880014000700b80007000000e00068
:1004300003003a00203421000100200002003700b0
:100440000000200001002000810f70000100320038
:1004500014000700000020000000e000020032004d
:100460000000020000000000de1102000000000099
:100470000040da000000fe004440a900c000200057
:100480000000e0000300320000002000a00188000e
:100490004440a800000006008a1f78008b1f7800e7
:1004a0000000060091018800800478000000eb0045
:1004b0001a003700e284440032a0b4009905ba0063
:1004c000e284440032a0b4009906ba00e2844400f9
:1004d00032a0b4000006eb00476fde00fd07b2005b
:1004e000636ce10003003a00ebff07000000eb0043
:1004f0000a003700606ce10004003a00005deb0088
:100500008b05e900fdff3e00040037006168e10053
:10051000010032000086eb000b00070019c7ba008b
:100520001905ba000e04e00003003a000a00e000da
:10053000e0ff3a0000000600fe07b2009e018800be
:100540008a047800f5ff3700395dba008b05e900b1
:100550000c003200295dba008b05e900080032006a
:100560000c00e00003003a00e284440032a0b40032
:10057000f5ff370019ddba008b05e900faff3a00f4
:100580008904e800e184440032a0b40000000600c1
:100590003600f800809fbe00829fbe00849fbe0090
:1005a000869fbe003400f80000002000a0018800f3
:1005b0000200fa000040eb00004f780036003700e0
:1005c0001e80fb006a00b900800078008080200057
:1005d00000804000100078000000e0002d00320094
:1005e0001e81fb006a10b90000007800e6004000a0
:1005f00080802000008040001000be0061004000ac
:10060000e08048006a11b90082017800e280200091
:10061000028141000089be001e80fb006a00b90013
:1006200000007800e600400080802000008040004c
:100630001001be001e80fb006a00b90000007800b7
:100640008080e80080802000008040001000be0014
:10065000800f5100818f59000e003a001e80fb0070
:100660006a00b9008000780080802000008040008f
:1006700010007800000001001e80fb006a00b90035
:1006800080007800e0802000008140006000b80019
:100690000089be001e4fe8001e407800e94f500060
:1006a000c7ff36008500a9000080fa003400f90079
:1006b0004f03be004f02be004f01be004f00be0000
:1006c0003600f900004006000040da000000fe009d
:1006d0000600fa00000f78000e80e800010878009c
:1006e00064004700020878000e80e80010007800df
:1006f000e4004700910078001e05070064004700f1
:10070000100078000080fa000000060000000500dc
:10071000889fbe008a9fbe00800478000200e0002f
:100720005a00320001407800814c780082814400f8
:10073000f1f99f00e20f51005400360091449800f7
:10074000a1449800e1f99f00d1f99f00e60f510004
:100750004e003600b1449800c1f99f00e80f5100e7
:100760004a0036000905ea00630565000a84440072
:100770000a055100c1ff2f00010565000080fb0044
:100780008000eb001210200013102000430007002f
:10079000008cbe000a01440060b99f0071b99f003f
:1007a000e80f550039003600200498003104980005
:1007b000400498005104980020b99f0031b99f006f
:1007c00040b99f0051b99f00f80f55002f00360027
:1007d0006004980071049800000c9800110c9800b7
:1007e000200c9800310c9800400c9800510c980097
:1007f00020b19f0031b19f0040b19f0051b19f00d7
:1008000060b19f0071b19f0000b99f0011b99f00b6
:1008100064016400780141000204440002055500af
:100820006011b8000203be000002be000403be0057
:100830006022b80000007200818072000201730023
:10084000838173000f00370008027800009abe0011
:10085000029abe00009abe000292be00000c9800f0
:10086000110c9800220c9800330c9800400c980052
:10087000510c9800620c9800730c98000a02b100a9
:100880000802b000ff0f5500efff3e00090078009e
:100890004f05be004f04be0000000600020ab9006a
:1008a000001bb9000200b800810042008100430033
:0408b000000006003e
:020000040000fa
:1008b400000300000306000001040000060200001b
:0808c40005000000030500001f
:020000040000fa
:1008cc001200fa00f000470080087800e3004700af
:1008dc00a24528000b000900b258780010c3b300e1
:1008ec000000fb004400dd008040780030c3b30002
:1008fc006f40600000c070008040780070004700be
:10090c0010007800670040000148780030c3b30045
:10091c000000fb004400dd008040780060c3b300a1
:10092c006f40600000c0700080407800700047008d
:10093c0010007800660040000148780010c3b30036
:10094c000000fb004400dd008040780070c3b30061
:10095c006f40600000c0700080407800700047005d
:10096c0010007800650040000148780020c3b300f7
:10097c000000fb004400dd008040780050c3b30051
:10098c006f40600000c0700080407800700047002d
:10099c0010007800630040000148780020c3b300c9
:1009ac000000fb004400dd008040780040c3b30031
:1009bc006f40600000c070008040780070004700fd
:1009cc00100078000000e80001487800d0c4b300a3
:1009dc000000fb00a1042000810f50001e0032001b
:1009ec00a1042000810f50000a003c0041042000ab
:1009fc00810f50006c00320061042000810f500008
:100a0c003500320011042000810f500048003200e4
:100a1c0069003700e1042000810f50005e003200b5
:100a2c00e1042000810f500004003c00d1042000a0
:100a3c00810f50002c0032005f003700f1042000c1
:100a4c00810f50005000320031052000810f500002
:100a5c00490032005800370010c6b3000000fb00fc
:100a6c0011062000810f50000400320051072000b5
:100a7c00810f5000050032004f00370011c0b30049
:100a8c000e00e800014878001200370090c7b30050
:100a9c000000fb00c1062000810f5000080032004e
:100aac00e1062000810f50000100320008003700e1
:100abc0061c0b3000e00e800014878000400370064
:100acc0071c0b3000e00e80001487800000000007f
:100adc00000000003800370021c0b3000e00e80011
:100aec00014878003400370090c7b3000000fb00c9
:100afc0021072000810f50000400320091072000d4
:100b0c00810f5000050032002b00370031c0b300bc
:100b1c000e00e800014878000400370051c0b30013
:100b2c000e00e800014878000000000022003700a9
:100b3c0010c6b3000000fb0001072000810f50001d
:100b4c000400320051072000810f500005003200d4
:100b5c001900370041c0b3000e00e80001487800ce
:100b6c000400370081c0b3000e00e8000148780093
:100b7c00000000001000370091c0b3000e00e80028
:100b8c00014878000c00370001c1b3000e00e800ea
:100b9c00014878000800370011c1b3000e00e800ce
:100bac00014878000400370021c1b3000e00e800b2
:100bbc000148780000000000700047001000780029
:100bcc000080e8008e00e8001148780060c0b30097
:100bdc00004f780070004700100078000000e8001b
:100bec00104078000080fb004400de0000407800dc
:100bfc006a00b9000000780080407800700047005f
:100c0c00100078000000e800104078006f40600091
:100c1c0080c040000e80e800014878000e80e8009b
:100c2c00104078000080fb004200de00804078001d
:100c3c000e80e8001040780000c040001e4f4000bd
:100c4c000e80e80010407800634060000004e00073
:100c5c0005003a000e00e80010407800e24f50000a
:100c6c0001003e001e4fe9000e00e8001040780025
:100c7c000080fb000000e90000004700630040001a
:100c8c00104078001e4f40007000470010007800a4
:100c9c0063004000104078000080fb004400de0040
:100cac00004078006a00b9000000780080407800ad
:100cbc00700047001000780063004000104078007e
:100ccc006f40600000c040001e4f40009e80fb0043
:100cdc007000200000017800110009008280d8000b
:100cec008000fd00004f7800700047001000780075
:100cfc00640040001e487800700047001000780027
:100d0c00104078000004a2000004e0003f00320014
:100d1c0070004700100078000000e80010407800d8
:100d2c00f1010700f0004700910078008100e80015
:100d3c008048780070004700100078000080e800c0
:100d4c0010407800e8010700f0004700910078009f
:100d5c008180e8008048780070004700100078001f
:100d6c006300400010407800df010700f0004700ee
:100d7c0091007800e38040008048780070004700c4
:100d8c00100078006400400010407800d601070085
:100d9c00f000470091007800e48040008048780023
:100dac00700047001000780065004000104078008b
:100dbc00cd010700f000470091007800e58040006d
:100dcc0080487800700047001000780066004000f2
:100ddc0010407800c4010700f00047009100780033
:100dec00e6804000804878007000470010007800d2
:100dfc006700400010407800bb010700f00047007e
:100e0c0091007800e7804000804878000080fa006c
:100e1c00000006000200fa00881f7800000f78001e
:100e2c0023002000600420007205200024742000a0
:100e3c00004a7800024a7800034a780051052000e5
:100e4c00313b8800a10a2000313b880027a6a8006e
:100e5c002706a8002726a8001e007800104078005e
:100e6c000004e000270032001e0078000000e800bb
:100e7c00104078000080fb00203188001e007800b4
:100e8c000080e800104078000080fb00c800dd0006
:100e9c001e00780063004000104078000080fb00ca
:100eac0001007000203188001e00780064004000b2
:100ebc00104078000080fb00c800dd001e007800a8
:100ecc0065004000104078000080fb0001007000bd
:100edc00203188001e007800660040001040780029
:100eec000080fb00c800dd001e0078006700400099
:100efc00104078000080fb00010070002031880059
:100f0c002d0037001e0078000000e800104078002b
:100f1c00600107000080fb00203188001e00780073
:100f2c000080e800104078005a0107000080fb00a8
:100f3c004804dd001e00780063004000104078007b
:100f4c00540107000080fb0008007000203188006d
:100f5c001e00780064004000104078004d0107002e
:100f6c000080fb004804dd001e0078006500400096
:100f7c0010407800470107000080fb00080070005b
:100f8c00203188001e007800660040001040780078
:100f9c00400107000080fb004804dd001e007800c3
:100fac0067004000104078003a0107000080fb0009
:100fbc0008007000203188000000280030318800c3
:100fcc004f0478000080fa00000006000e00fa00c2
:100fdc00ec004700800878002706a8002726a80008
:100fec00303180004c00de00614060000080fb006e
:100ffc0000f0a7000000ea000000ea004f00de004d
:10100c00004f78000e80e800213180000108780044
:10101c000e80e80010007800804078006c004700db
:10102c00100078000000e800014878000e80e8000d
:10103c0021318000010878000e80e8001000780053
:10104c004800de00804078006c00470010007800fb
:10105c000080e800014878000e80e800100078005d
:10106c00804078006c00470010007800630040005e
:10107c00014878000e80e8002131800001087800da
:10108c000e80e800100078004800de0080407800f8
:10109c006c004700100078006400400001487800a4
:1010ac000e80e80010007800804078006c0047004b
:1010bc001000780065004000014878000e80e800c0
:1010cc0021318000010878000e80e80010007800c3
:1010dc004800de00804078006c004700100078006b
:1010ec0066004000014878000e80e800100078008f
:1010fc00804078006c0047001000780067004000ca
:10110c00014878001e4078000004e0009a0032008c
:10111c006c00470010007800670040009040780099
:10112c006b004700014878006c0047001000780005
:10113c0066004000904078006a0047000148780043
:10114c006c0047001000780065004000904078006b
:10115c0069004700014878006c00470010007800d7
:10116c006300400090407800670047000148780019
:10117c006c004700100078000080e8009040780078
:10118c0066004700014878006c00470010007800aa
:10119c000000e800904078006500470001487800a6
:1011ac006c0047001000780064004000904078000c
:1011bc0068004700014878002706a8002726a800e9
:1011cc0020318000804078006c00470010007800cf
:1011dc000000e800014878000e80e8002131800012
:1011ec00010878000e80e800100078004800de004e
:1011fc00804078006c004700100078000080e80008
:10120c00014878000e80e8001000780080407800db
:10121c006c00470010007800630040000148780023
:10122c000e80e80021318000010878000e80e80073
:10123c00100078004800de00804078006c00470009
:10124c001000780064004000014878000e80e8002f
:10125c0010007800804078006c0047001000780087
:10126c0065004000014878000e80e80021318000c4
:10127c00010878000e80e800100078004800de00bd
:10128c00804078006c004700100078006600400039
:10129c00014878000e80e80010007800804078004b
:1012ac006c0047001000780067004000014878008f
:1012bc006c004700100078006700400090407800f8
:1012cc006b0047001040780080cf500021003a009e
:1012dc006c004700100078006600400090407800d9
:1012ec006a0047001040780080cf50001b003a0085
:1012fc006c004700100078006500400090407800ba
:10130c00690047001040780080cf500015003a006b
:10131c006c0047001000780063004000904078009b
:10132c00670047001040780080cf50000f003a0053
:10133c006c004700100078000080e80090407800b6
:10134c00660047001040780080cf500009003a003a
:10135c000900370000000000070037000000000003
:10136c0005003700000000000300370000000000fb
:10137c0001003700000000006c00470010007800ee
:10138c00104078000004a2000004e0003f0032008e
:10139c006c004700100078000000e8001040780056
:1013ac0051000700ec004700910078008100e80034
:1013bc00804878006c004700100078000080e8003e
:1013cc001040780048000700ec00470091007800be
:1013dc008180e800804878006c004700100078009d
:1013ec0063004000104078003f000700ec0047000d
:1013fc0091007800e3804000804878006c00470042
:10140c00100078006400400010407800360007009f
:10141c00ec00470091007800e480400080487800a0
:10142c006c00470010007800650040001040780008
:10143c002d000700ec00470091007800e58040008b
:10144c00804878006c00470010007800660040006f
:10145c001040780024000700ec0047009100780051
:10146c00e6804000804878006c004700100078004f
:10147c0067004000104078001b000700ec0047009c
:10148c0091007800e7804000804878000080fa00e6
:10149c00000006000200fa00004f78009e80fb005e
:1014ac00d0cc2c000008b8004308de0000407800c7
:1014bc000080fb004400dd00804178001e81fb00b1
:1014cc00d0cc2c000010b8004308de006a00b90034
:1014dc0000007800000051000040780000c071004e
:1014ec000080fa00000006000200fa00004f7800ad
:1014fc001e80fb004400de00004078006a00b9004a
:10150c0000007800804078001e4178006f40610038
:10151c0000c040000080fa00000006000200fa0043
:10152c00000f78001e0078003afe07000080fa00d9
:10153c00000006000200fa00000f78001e00780080
:10154c00a2fe07000080fa00000006000200fa006c
:10155c00000f78001e007800e40f500018003200d5
:10156c00e40f500007003e00e20f50001000320064
:10157c00e20f500010003e00e10f50000a00320054
:10158c0019003700e60f500011003200e60f500032
:10159c000d003900e70f50000f003200e80f50002b
:1015ac000f00320010003700c402a8000e003700f4
:1015bc00c422a8000c003700c442a8000a0037005f
:1015cc00c462a80008003700c482a80006003700d7
:1015dc00c4a2a80004003700c4c2a800020037004f
:1015ec00c4e2a800000000000080fa000000060021
:1015fc000200fa00000f78001e007800e40f500083
:10160c0018003200e40f500007003e00e20f5000bb
:10161c0010003200e20f500010003e00e10f5000ad
:10162c000a00320019003700e60f5000110032009a
:10163c00e60f50000d003900e70f50000f0032008c
:10164c00e80f50000f00320010003700c402a90050
:10165c000e003700c422a9000c003700c442a900b8
:10166c000a003700c462a90008003700c482a90030
:10167c0006003700c4a2a90004003700c4c2a900a8
:10168c0002003700c4e2a900000000000080fa004c
:10169c00000006000200fa00000f78001e0078001f
:1016ac00e40f500038003200e40f500007003e00f9
:1016bc00e20f50001a003200e20f500025003e00ed
:1016cc00e10f50000a00320070003700e60f5000a6
:1016dc0047003200e60f500038003900e70f500089
:1016ec0050003200e80f50005b00320067003700fa
:1016fc002016800000407800614060000004a200c9
:10170c00614060000080fb006100600021168000d9
:10171c000100a10001007000201688005b0037005a
:10172c00201680000000d100614060000004a2007f
:10173c00614060000080fb00610060000000400020
:10174c00211680000110a1000100700020168800f5
:10175c004e003700201680004200de006140600021
:10176c000004a200614060000080fb00610060008a
:10177c004200dd00211680000120a1000100700054
:10178c002016880041003700201680004300de0040
:10179c00614060000004a200614060000080fb001a
:1017ac00610060004300dd00211680000130a100c3
:1017bc0001007000201688003400370020168000cd
:1017cc004400de00614060000004a2006140600043
:1017dc000080fb00610060004400dd0021168000e9
:1017ec000140a1000100700020168800270037007e
:1017fc00201680004500de00614060000004a2005d
:10180c00614060000080fb00610060004500dd006d
:10181c00211680000150a1000100700020168800e4
:10182c001a003700201680004600de006140600080
:10183c000004a200614060000080fb0061006000b9
:10184c004600dd00211680000160a100010070003f
:10185c00201688000d003700201680004700de009f
:10186c00614060000004a200614060000080fb0049
:10187c00610060004700dd00211680000170a100ae
:10188c000100700020168800000000000080fa00a3
:10189c00000006000200fa00000f78001e0078001d
:1018ac00e40f50002a003200e40f500007003e0005
:1018bc00e20f500016003200e20f50001c003e00f8
:1018cc00e10f50000a0032004c003700e60f5000c8
:1018dc002f003200e60f500025003900e70f5000b2
:1018ec0034003200e80f50003b0032004300370058
:1018fc00201680006100600000f0a7000000ea00e4
:10190c000000ea004f00de00004078003c00370089
:10191c00201680006200600000f0a7000000ea00c2
:10192c000000ea004f00de00004078003400370071
:10193c00201680006400600000f0a7000000ea00a0
:10194c000000ea004f00de00004078002c00370059
:10195c00201680006800600000f0a7000000ea007c
:10196c000000ea004f00de00004078002400370041
:10197c00201680007000600000f0a7000000ea0054
:10198c000000ea004f00de00004078001c00370029
:10199c0021168000000220000080600000f0a700eb
:1019ac000000ea000000ea004f00de000040780072
:1019bc001300370021168000000420000080600016
:1019cc0000f0a7000000ea000000ea004f00de0073
:1019dc00004078000a003700211680000008200023
:1019ec000080600000f0a7000000ea000000ea00a0
:1019fc004f00de0000407800010037000040eb0093
:101a0c000080fa00000006000200fa00000f7800c7
:101a1c001e007800e40f500018003200e40f500054
:101a2c0007003e00e20f500010003200e20f5000a1
:101a3c0010003e00e10f50000a0032001900370080
:101a4c00e60f500011003200e60f50000d00390077
:101a5c00e70f50000f003200e80f50000f0032006b
:101a6c0010003700c002a9000e003700c022a900e8
:101a7c000c003700c042a9000a003700c062a90060
:101a8c0008003700c082a90006003700c0a2a900d8
:101a9c0004003700c0c2a90002003700c0e2a90050
:101aac00000000000080fa00000006000000fa00b0
:101abc00f03f2000103088003038280000308800bb
:101acc0010002000603088000088230011002000e6
:101adc001c010700008823001100200019010700d9
:101aec000426ef0030032000403088005003200013
:101afc0001002000130107000426ef002003200042
:101b0c004030880050032000010020000d01070028
:101b1c000426ef0080032000403088005003200092
:101b2c0001002000070107000426ef00c000200080
:101b3c004030880050032000010020000101070004
:101b4c000426ef0060002000403088005003200085
:101b5c0001002000fb0007007100070010c0b3005b
:101b6c000080fa00000006000400fa00000f780064
:101b7c000e80e800010878000a0037001e0078008b
:101b8c00104078000000fb000000e0001400320060
:101b9c001e007800104078001e0fe80013000700ac
:101bac00000000000e80e8001000780000f0a70094
:101bbc000000ea000000ea004f00de000040780060
:101bcc008e80e800910078000101e9008e80e80029
:101bdc00820878000004e000e8ff3a0001003700ba
:101bec00000000000080fa00000006000200fa006d
:101bfc00004f78001e00fb00ea0f50000e00320070
:101c0c00ea0f500003003c00e80f500015003200b2
:101c1c001b003700ec0f500017003200ed0f500086
:101c2c0017003a0002c8bf00ea4f500036003200dd
:101c3c004c0007003500370002c8bf00ed4f5000c4
:101c4c00010032004700070000c8bf000004e0009c
:101c5c0002003a00b00007002c003700a300070078
:101c6c002a0037005300070000c2b300dfff070053
:101c7c00500007002500370029000700230037001b
:101c8c0001c8bf00f04f500014003a000168ef008b
:101c9c0000c8bf000004e00009003a000426ef0071
:101cac00000c200040308800500320000100200070
:101cbc00a400070010c0b30000e8b700070037000d
:101ccc000426ef000008200040308800500320005c
:101cdc00010020009b0007000068ef0010002000ae
:101cec00203088001e00fb0040308800500320008c
:101cfc00010020009300070001c8bf000040e8006d
:101d0c0001e8b70001003700000000001e41780018
:101d1c0021802000824878000080fa000000060034
:101d2c000000fa000426ef0010002000403088006c
:101d3c00a088200001002000820007000426ef008c
:101d4c002000200040308800a088200001002000e6
:101d5c007c0007000068ef000168ef000080fa00cb
:101d6c00000006000000fa0000c8bf000004e000fc
:101d7c0007003a000426ef000008200040308800dd
:101d8c0050032000010020006e0007000600370001
:101d9c000426ef00000c2000403088005003200087
:101dac0001002000670007000168ef000080fa00c6
:101dbc00000006000200fa0001c8bf000004e000a9
:101dcc001c003a0000c8bf000004e00009003a0003
:101ddc000426ef00000c2000403088005003200047
:101dec00010020005700070010c0b30000e8b70046
:101dfc00070037000426ef00000820004030880060
:101e0c0050032000010020004e0007000068ef0086
:101e1c000040eb00004f7800020037001000070074
:101e2c001e4fe8001e407800ee4f5000fbff3600be
:101e3c000900370001c8bf000040e90001e8b70005
:101e4c000426ef00000120004030880050032000e1
:101e5c00010020003b0007000080fa000000060093
:101e6c000000fa000426ef004001200040308800fa
:101e7c0050032000010020003200070001c8bf0001
:101e8c000040e80001e8b70001c8bf00f04f500067
:101e9c0014003a000168ef0000c8bf000004e00025
:101eac0009003a000426ef00000c200040308800a6
:101ebc0050032000010020002200070010c0b300d6
:101ecc0000e8b700070037000426ef0000082000e8
:101edc00403088005003200001002000190007004a
:101eec000068ef000080fa00000006000200fa0013
:101efc000040eb00004f780002003700adff0700f8
:101f0c001e4fe8001e407800ef4f5000fbff3600dc
:101f1c000080fa00000006000200fa000040eb000e
:101f2c00004f780002003700cdff07001e4fe8007d
:101f3c001e407800ef4f5000fbff36000080fa0087
:101f4c00000006000400fa00008fbe0005003700f8
:101f5c00000000000081eb008081eb001e0f4100af
:101f6c005e9749001e00be00e00f5000e08f580045
:101f7c00f7ff3a000080fa00000006000200fa00a9
:101f8c00004f78001e4078000004e000070032008b
:101f9c000426ef00f00020004030880050032000a1
:101fac0001002000e7ff0700060037000426ef00c1
:101fbc00c0002000403088005003200001002000a9
:101fcc00e0ff07000080fa00000006000400fa00a1
:101fdc008e80e800800878000e80e8001000780001
:101fec00e40f500004003200e50f500004003200f2
:101ffc0000c0eb00110037000000000001003700aa
:10200c00000000000e80e800100078000d000700b2
:10201c00d1cc2c000100b8004308de00004f780042
:10202c0040c6b3009e40780080cf500002003600be
:10203c0040c6b300004f78001e4078000080fa00c4
:10204c00000006000400fa008e80e800800878008a
:10205c000e80e80010007800e40f500004003200fd
:10206c00e50f5000040032000080eb002000370028
:10207c000000000001003700000000000e80e800a6
:10208c0090007800411988002023a8000000eb0084
:10209c00000f780002003700000000001e0fe8005f
:1020ac00703e20009e007800808f5000faff3600b2
:1020bc002023a9000000eb00000f7800020037007d
:1020cc00000000001e0fe800703e20009e0078000b
:1020dc00808f5000faff36000000000000198000cd
:1020ec00610060000000e000fcff3200001880007e
:1020fc000080fa00000006000200fa00000f7800d1
:10210c001e007800e40f500005003200e50f50006f
:10211c0006003a002ca3a90010c0b300040037003d
:10212c002c83a90010c0b300010037000040eb0065
:10213c000080fa00000006000200fa00000f780090
:10214c001e0078000000e0001a003a00111980000f
:10215c00f0ff2100008060001019880000c0eb0027
:10216c0024e3b70001198000f0f12f00008060001b
:10217c000019880021198000f00f2e0000806000eb
:10218c0000c0a0002019880001198000f0cf2f009a
:10219c0000806000001988001119800030fc2f00ad
:1021ac00008060001019880021e3a80010c0b30063
:1021bc00010037000040eb000080fa000000060030
:1021cc000400fa008e80e800800878000040eb00e4
:1021dc00004f7800120037001e80fb006a00b90027
:1021ec008000780080802000008040009000780003
:1021fc000e80e80010007800808f500007003a0035
:10220c001e80fb006a00b9008000780080802000ee
:10221c00008040008000eb00010878001e4fe800b1
:10222c001e407800e94f5000ebff36000080fa00aa
:10223c00000006000800fa008e80e8008008780094
:10224c00640047000288be0004c8bf000004a2005e
:10225c000004e000020032000040eb0028003700d0
:10226c000040eb00004f7800210037001e80fb007f
:10227c006a00b90080007800808020000080400057
:10228c00100078000000e00018003a001e80fb00ef
:10229c006a00b90080007800808020000080400037
:1022ac008e80e800110878001e80fb006a00b900df
:1022bc0080007800a080200000804000e4004700ef
:1022cc0031187800211078001e80fb006a00b900dc
:1022dc0080007800e0802000008140006000b800a1
:1022ec000089be0010c0b300050037001e4fe80087
:1022fc001e407800e94f5000dcff36000040eb0038
:10230c000080fa00000006000200fa00000f7800be
:10231c001e0078000000e00003003200e10f5000c6
:10232c001500320018003700420620008000eb0038
:10233c0080802000f3f807004105800080ff2f000b
:10234c00008060000000a000400588008500a90006
:10235c000a21ef0000e823007008880000002a0022
:10236c00900888009500a80010c0b30004e8b700de
:10237c0010c0b300050037009500a9000468ef00f9
:10238c0010c0b300010037000040eb000080fa00e1
:10239c00000006000200fa00000f780000362e0044
:1023ac0061012000a60007000080fa000000060072
:1023bc000c00fa0031c5b3006400470001487800f6
:1023cc000000eb00000f78001100200066004700b1
:1023dc00010878000000eb0057ff070050002000b8
:1023ec0045ff0700c022ef005000200015ff07003a
:1023fc0080007800680047000108780068004700fa
:10240c0010007800e10f400001003a003c0037005a
:10241c006800470010007800c200de006a00470028
:10242c00014878006a004700104078000080fb00eb
:10243c00201688006a004700104078000004e00075
:10244c002b003d0010002000000f78002800370002
:10245c00100020002b0007000004e00006003200f2
:10246c000000eb00000f78008000eb0066004700d6
:10247c0001087800220037006a00470010407800fd
:10248c000004e000020035000000eb00000f7800b3
:10249c008000eb000e80e800010878000b0037008c
:1024ac00900f2000201688000071220001002000ef
:1024bc0063000700c422ef000e80e80010007800d3
:1024cc008000e8000e80e800010878000e80e8002b
:1024dc009000780010032000808f5000f0ff340033
:1024ec006a004700104078000080fb00201688002e
:1024fc001e007800e10f5000d5ff3200baff370004
:10250c00b9ff37000200fa00000f78001e007800b7
:10251c00e20f500013003200e20f500003003e00a7
:10252c00e10f50000600320029003700e30f500085
:10253c0015003200e40f50001c003200240037005c
:10254c00a1168000000420000080600000f0a700ad
:10255c000000ea000000e9004f00de0000407800b7
:10256c001c003700a11680000008200000806000cd
:10257c0000f0a7000000ea000000e9004f00de00b8
:10258c00004078001300370011168000000820006e
:10259c000080600000f0a7000000ea000000e900e5
:1025ac004f00de00004078000a003700a1168000c2
:1025bc00000022000080600000f0a7000000ea008c
:1025cc000000e9004f00de000040780001003700f9
:1025dc000040eb000080fa00000006000200fa0048
:1025ec00000f78001e007800e20f50000c00320043
:1025fc00e20f500003003e00e10f500006003200d5
:10260c000d003700e30f500007003200e40f5000bc
:10261c000700320008003700d2c2a80006003700bd
:10262c00d2e2a80004003700c0e2a8000200370084
:10263c00d3a2a800000000000080fa0000000600f1
:020000040000fa
:10264c00f03fb1000180b10006003500ee03090037
:10265c0000000000403fb1000180b100fbff3d00d5
:10266c001000b000203fb0000200350000800900cf
:08267c00000000000000060050
:020000040000fa
:10268400000800000400000000000000080800002a
:1026940064000000000000000408000002000000c4
:1026a4000000000006080000020000000000000016
:0426b4000000000022
:020000040000fa
:020000040002f8
:04aff8009dfa0000be
:020000040000fa
:020000040002f8
:04affc007f3f000093
:00000001FF
